:100000000C9434000C9448000C9446000C94460068
:100010000C9446000C9446000C9446000C94460048
:100020000C9446000C9446000C9446000C94460038
:100030000C9446000C9446000C9446000C94460028
:100040000C9446000C9446000C9446000C94460018
:100050000C9446000C9446000C9446000C94460008
:100060000C9446000C94460011241FBECFEFD8E03C
:10007000DEBFCDBF21E0A0E0B1E001C01D92A13004
:10008000B207E1F70E948E000C94FC000C94000073
:100090001F920F920FB60F9211248F9381E08093DD
:1000A00000018F910F900FBE0F901F9018958BB18C
:1000B00080618BB98BB18F798BB9089590E019C0AD
:1000C0008BB180628BB92FEF33ED80E3215030404C
:1000D0008040E1F700C000008BB18F7D8BB92FEF1E
:1000E00033ED80E3215030408040E1F700C0000054
:1000F0009F5F953028F3089585B1826085B985B1F9
:100100008E7F85B9089585B1816085B985B18D7F70
:1001100085B9089585B18C7F85B908958AB18067C6
:100120008AB984B1836084B98AB18B7F8AB98BB173
:1001300084608BB9E9E6F0E0808182608083808111
:100140008E7F80838DB381608DBB78940E94570031
:10015000809100018823E1F31092000180E00AC041
:100160002FEF33ED90E3215030409040E1F700C095
:1001700000008F5F8530A0F38BB18F7E8BB90E941A
:100180005E008BB180648BB90E947C0080E00AC065
:100190002FEF33ED90E3215030409040E1F700C065
:1001A00000008F5F8A30A0F30E948A0080E00AC0BE
:1001B0002FEF33ED90E3215030409040E1F700C045
:1001C00000008F5F8F30A0F30E94830080E00AC0A0
:1001D0002FEF33ED90E3215030409040E1F700C025
:1001E00000008F5F8A30A0F30E948A008BB18F7B62
:0C01F0008BB90E945700ACCFF894FFCFF1
:00000001FF
