:100000000C9434000C9440000C943E000C943E0080
:100010000C943E000C943E000C943E000C943E0068
:100020000C943E000C943E000C943E000C943E0058
:100030000C943E000C943E000C943E000C943E0048
:100040000C943E000C943E000C943E000C943E0038
:100050000C943E000C943E000C943E000C943E0028
:100060000C943E000C943E0011241FBECFEFD8E04C
:10007000DEBFCDBF0E945C000C9482000C94000097
:100080001F920F920FB60F9211242F938F939F936D
:1000900085B1806285B92FEF8BE792E921508040CE
:1000A0009040E1F700C000009F918F912F910F9039
:1000B0000FBE0F901F90189578948CB381608CBB05
:1000C0008AB18B7F8AB984B1806384B98DB3816032
:1000D0008DBBE9E6F0E080818260808380818E7F45
:1000E000808385B18F7D85B995B180E1892785B9F8
:1000F0002FEF83ED90E3215080409040E1F700C066
:080100000000EFCFF894FFCFDF
:00000001FF
