S013000054494D45522030204354432E7372656346
S11300000C9434000C943E000C943E000C943E007E
S11300100C943E000C943E000C943E000C943E0064
S11300200C943E000C943E000C943E000C943E0054
S11300300C943E000C943E000C943E000C943E0044
S11300400C943E000C943E000C943E000C943E0034
S11300500C943E000C943E000C943E000C943E0024
S11300600C943E000C943E0011241FBECFEFD8E048
S1130070DEBFCDBF0E944E000C9467000C940000BC
S113008020E030E007C0A99BFECF85B3826085BB2A
S11300902F5F3F4F24363105B4F3089516BC8CE925
S11300A087BD84B5826084BD84B58E7F84BD85B5EB
S11300B0856085BD85B58D7F85BD84B1806284B939
S11300C095B180E2892785B90E944000F9CFF89460
S10500D0FFCF5C
S9030000FC
