:100000000C9434000C943E000C943E000C943E0082
:100010000C943E000C943E000C943E000C943E0068
:100020000C943E000C943E000C943E000C943E0058
:100030000C943E000C943E000C943E000C943E0048
:100040000C943E000C943E000C943E000C943E0038
:100050000C943E000C943E000C943E000C943E0028
:100060000C943E000C943E0011241FBECFEFD8E04C
:10007000DEBFCDBF0E9440000C945D000C940000D8
:100080008AB184608AB99BB184E089278BB92FEF4C
:100090008BE792E9215080409040E1F700C00000DA
:1000A0008BB18B7F8BB92FEF8BE792E9215080408A
:0E00B0009040E1F700C00000E6CFF894FFCFCB
:00000001FF
