S019000054494D45522030205052455343414C41522E737265637D
S11300000C9434000C943E000C943E000C943E007E
S11300100C943E000C943E000C943E000C943E0064
S11300200C943E000C943E000C943E000C943E0054
S11300300C943E000C943E000C943E000C943E0044
S11300400C943E000C943E000C943E000C943E0034
S11300500C943E000C943E000C943E000C943E0024
S11300600C943E000C943E0011241FBECFEFD8E048
S1130070DEBFCDBF0E944E000C9462000C940000C1
S113008020E030E007C0A89BFECF85B3816085BB2C
S11300902F5F3F4F2D333105B4F3089516BC84B15F
S11300A0806284B984B58C7F84BD85B5856085BD47
S11300B085B58D7F85BD95B180E2892785B90E947C
S10B00C04000F9CFF894FFCFD2
S9030000FC
