S01800004443204D4F544F5220434F4E54524F4C2E7372656393
S11300000C9434000C943E000C943E000C943E007E
S11300100C943E000C943E000C943E000C943E0064
S11300200C943E000C943E000C943E000C943E0054
S11300300C943E000C943E000C943E000C943E0044
S11300400C943E000C943E000C943E000C943E0034
S11300500C943E000C943E000C943E000C943E0024
S11300600C943E000C943E0011241FBECFEFD8E048
S1130070DEBFCDBF0E9455000C946C000C940000B0
S11300808BB181608BB98BB18D7F8BB908958BB1A6
S11300908E7F8BB98BB182608BB908958BB18E7FC3
S11300A08BB98BB18D7F8BB9089584B18E7F84B960
S11300B08AB181608AB9189B05C0199903C00E944E
S11300C04000F9CF199B05C0189903C00E9447004E
S10F00D0F2CF0E944E00EFCFF894FFCF57
S9030000FC
