S0170000696E7465726E616C2070756C6C75702E73726563EE
S11300000C9434000C943E000C943E000C943E007E
S11300100C943E000C943E000C943E000C943E0064
S11300200C943E000C943E000C943E000C943E0054
S11300300C943E000C943E000C943E000C943E0044
S11300400C943E000C943E000C943E000C943E0034
S11300500C943E000C943E000C943E000C943E0024
S11300600C943E000C943E0011241FBECFEFD8E048
S1130070DEBFCDBF0E9440000C9453000C940000DE
S113008084B1806284B985B1806485B984B18F7B81
S113009084B91E9904C085B1806285B9FACF85B14F
S10D00A08F7D85B9F6CFF894FFCFE9
S9030000FC
